:100000000C9434000C9446000C9446000C9446006A
:100010000C9446000C9446000C9446000C94460048
:100020000C9446000C9446000C9446000C94460038
:100030000C9446000C9446000C9446000C94460028
:100040000C9446000C9446000C947C000C944600E2
:100050000C9446000C9446000C9446000C94460008
:100060000C9446000C94460011241FBECFEFD8E03C
:10007000DEBFCDBF21E0A0E0B1E001C01D92A13004
:10008000B207E1F70E946C000C9494000C940000FD
:1000900081E084B98AB18E7F8AB98AB182608AB9D7
:1000A0001092C000E1ECF0E01082808188698083CA
:1000B000E2ECF0E0108280818660808387E690E049
:1000C0009093C5008093C40008959091C00095FF5F
:1000D000FCCF8093C60008950E944800789482E483
:1000E0000E9465008AE00E9465008DE00E94650024
:1000F0008091000185B9FCCF1F920F920FB60F922D
:1001000011248F938091C600809300018091C000DC
:1001100085FFFCCF809100018093C6008F910F90E6
:0C0120000FBE0F901F901895F894FFCFB1
:00000001FF
